{
  "_format": "hh-sol-artifact-1",
  "contractName": "PaymentsModule",
  "sourceName": "contracts/modules/payments/PaymentsModule.sol",
  "abi": [
    {
      "inputs": [
        {
          "internalType": "address",
          "name": "_owner",
          "type": "address"
        }
      ],
      "stateMutability": "nonpayable",
      "type": "constructor"
    },
    {
      "inputs": [],
      "name": "ContractPaused",
      "type": "error"
    },
    {
      "inputs": [],
      "name": "InvalidAddress",
      "type": "error"
    },
    {
      "inputs": [],
      "name": "InvalidPaymentAmount",
      "type": "error"
    },
    {
      "inputs": [],
      "name": "TransferFailed",
      "type": "error"
    },
    {
      "inputs": [],
      "name": "Unauthorized",
      "type": "error"
    },
    {
      "inputs": [],
      "name": "UnauthorizedBatch",
      "type": "error"
    },
    {
      "anonymous": false,
      "inputs": [
        {
          "indexed": true,
          "internalType": "address",
          "name": "sender",
          "type": "address"
        },
        {
          "indexed": false,
          "internalType": "uint256",
          "name": "totalAmount",
          "type": "uint256"
        },
        {
          "indexed": false,
          "internalType": "uint256",
          "name": "recipientCount",
          "type": "uint256"
        }
      ],
      "name": "BatchPaymentSent",
      "type": "event"
    },
    {
      "anonymous": false,
      "inputs": [
        {
          "indexed": true,
          "internalType": "address",
          "name": "previousOwner",
          "type": "address"
        },
        {
          "indexed": true,
          "internalType": "address",
          "name": "newOwner",
          "type": "address"
        }
      ],
      "name": "OwnershipTransferred",
      "type": "event"
    },
    {
      "anonymous": false,
      "inputs": [
        {
          "indexed": true,
          "internalType": "address",
          "name": "account",
          "type": "address"
        }
      ],
      "name": "Paused",
      "type": "event"
    },
    {
      "anonymous": false,
      "inputs": [
        {
          "indexed": true,
          "internalType": "address",
          "name": "sender",
          "type": "address"
        },
        {
          "indexed": true,
          "internalType": "address",
          "name": "recipient",
          "type": "address"
        },
        {
          "indexed": false,
          "internalType": "uint256",
          "name": "amount",
          "type": "uint256"
        }
      ],
      "name": "SinglePaymentSent",
      "type": "event"
    },
    {
      "anonymous": false,
      "inputs": [
        {
          "indexed": true,
          "internalType": "address",
          "name": "account",
          "type": "address"
        }
      ],
      "name": "Unpaused",
      "type": "event"
    },
    {
      "inputs": [
        {
          "internalType": "address",
          "name": "token",
          "type": "address"
        },
        {
          "internalType": "address[]",
          "name": "recipients",
          "type": "address[]"
        },
        {
          "internalType": "uint256[]",
          "name": "amounts",
          "type": "uint256[]"
        }
      ],
      "name": "batchSendERC20",
      "outputs": [],
      "stateMutability": "nonpayable",
      "type": "function"
    },
    {
      "inputs": [
        {
          "internalType": "address[]",
          "name": "recipients",
          "type": "address[]"
        },
        {
          "internalType": "uint256[]",
          "name": "amounts",
          "type": "uint256[]"
        }
      ],
      "name": "batchSendETH",
      "outputs": [],
      "stateMutability": "payable",
      "type": "function"
    },
    {
      "inputs": [],
      "name": "owner",
      "outputs": [
        {
          "internalType": "address",
          "name": "",
          "type": "address"
        }
      ],
      "stateMutability": "view",
      "type": "function"
    },
    {
      "inputs": [],
      "name": "pause",
      "outputs": [],
      "stateMutability": "nonpayable",
      "type": "function"
    },
    {
      "inputs": [],
      "name": "paused",
      "outputs": [
        {
          "internalType": "bool",
          "name": "",
          "type": "bool"
        }
      ],
      "stateMutability": "view",
      "type": "function"
    },
    {
      "inputs": [
        {
          "internalType": "address",
          "name": "recipient",
          "type": "address"
        },
        {
          "internalType": "uint256",
          "name": "amount",
          "type": "uint256"
        }
      ],
      "name": "sendETH",
      "outputs": [],
      "stateMutability": "payable",
      "type": "function"
    },
    {
      "inputs": [
        {
          "internalType": "address",
          "name": "newOwner",
          "type": "address"
        }
      ],
      "name": "transferOwnership",
      "outputs": [],
      "stateMutability": "nonpayable",
      "type": "function"
    },
    {
      "inputs": [],
      "name": "unpause",
      "outputs": [],
      "stateMutability": "nonpayable",
      "type": "function"
    }
  ],
  "bytecode": "0x608060405234801561001057600080fd5b5060405161091f38038061091f83398101604081905261002f9161007d565b806001600160a01b0381166100575760405163e6c4247b60e01b815260040160405180910390fd5b600080546001600160a01b0319166001600160a01b0392909216919091179055506100ad565b60006020828403121561008f57600080fd5b81516001600160a01b03811681146100a657600080fd5b9392505050565b610863806100bc6000396000f3fe60806040526004361061007b5760003560e01c80638456cb591161004e5780638456cb59146101005780638da5cb5b14610115578063c76bd1931461014d578063f2fde38b1461016057600080fd5b806310a7319c146100805780633f4ba83a146100a25780635c975abb146100b757806364a197f3146100ed575b600080fd5b34801561008c57600080fd5b506100a061009b3660046106af565b610180565b005b3480156100ae57600080fd5b506100a06102d9565b3480156100c357600080fd5b506000546100d890600160a01b900460ff1681565b60405190151581526020015b60405180910390f35b6100a06100fb366004610730565b61033a565b34801561010c57600080fd5b506100a061041e565b34801561012157600080fd5b50600054610135906001600160a01b031681565b6040516001600160a01b0390911681526020016100e4565b6100a061015b36600461075a565b610485565b34801561016c57600080fd5b506100a061017b3660046107c6565b61059b565b8281146101a057604051637e2897ef60e11b815260040160405180910390fd5b600160005b848110156102b2576000876001600160a01b031663a9059cbb8888858181106101d0576101d06107e8565b90506020020160208101906101e591906107c6565b8787868181106101f7576101f76107e8565b6040516001600160a01b03909416602485015260200291909101356044830152506064016040516020818303038152906040529060e01b6020820180516001600160e01b03838183161783525050505060405161025491906107fe565b6000604051808303816000865af19150503d8060008114610291576040519150601f19603f3d011682016040523d82523d6000602084013e610296565b606091505b50509050806102a95760009250506102b2565b506001016101a5565b50806102d1576040516312171d8360e31b815260040160405180910390fd5b505050505050565b6000546001600160a01b03163314610303576040516282b42960e81b815260040160405180910390fd5b6000805460ff60a01b1916815560405133917f5db9ee0a495bf2e6ff9c91a7834c1ba4fdd244a5e8aa4e537bd38aeae4b073aa91a2565b8015806103475750803414155b1561036557604051637e2897ef60e11b815260040160405180910390fd5b6000826001600160a01b03168260405160006040518083038185875af1925050503d80600081146103b2576040519150601f19603f3d011682016040523d82523d6000602084013e6103b7565b606091505b50509050806103d9576040516312171d8360e31b815260040160405180910390fd5b6040518281526001600160a01b0384169033907f3392f7bc50fde39272fff225e259aeaaf89b7898e2ebb150b29b1537e950c8909060200160405180910390a3505050565b6000546001600160a01b03163314610448576040516282b42960e81b815260040160405180910390fd5b6000805460ff60a01b1916600160a01b17815560405133917f62e78cea01bee320cd4e420270b5ea74000d11b0c9f74754ebdbfc544b05a25891a2565b8281146104a557604051637e2897ef60e11b815260040160405180910390fd5b6000805b848110156104d9578383828181106104c3576104c36107e8565b60200291909101359290920191506001016104a9565b508034146104fa57604051637e2897ef60e11b815260040160405180910390fd5b60018460005b8181101561053857602081028881013590870135600080808084865af19150508061052f576000935050610538565b50600101610500565b505080610558576040516312171d8360e31b815260040160405180910390fd5b604080518381526020810187905233917f027ca3b81c8c5970aed9d96496330a9282c1703a5edbafa0a1b8cbe4433967a8910160405180910390a2505050505050565b6000546001600160a01b031633146105c5576040516282b42960e81b815260040160405180910390fd5b6001600160a01b0381166105ec5760405163e6c4247b60e01b815260040160405180910390fd5b600080546040516001600160a01b03808516939216917f8be0079c531659141344cd1fd0a4f28419497f9722a3daafe3b4186f6b6457e091a3600080546001600160a01b0319166001600160a01b0392909216919091179055565b80356001600160a01b038116811461065e57600080fd5b919050565b60008083601f84011261067557600080fd5b50813567ffffffffffffffff81111561068d57600080fd5b6020830191508360208260051b85010111156106a857600080fd5b9250929050565b6000806000806000606086880312156106c757600080fd5b6106d086610647565b9450602086013567ffffffffffffffff808211156106ed57600080fd5b6106f989838a01610663565b9096509450604088013591508082111561071257600080fd5b5061071f88828901610663565b969995985093965092949392505050565b6000806040838503121561074357600080fd5b61074c83610647565b946020939093013593505050565b6000806000806040858703121561077057600080fd5b843567ffffffffffffffff8082111561078857600080fd5b61079488838901610663565b909650945060208701359150808211156107ad57600080fd5b506107ba87828801610663565b95989497509550505050565b6000602082840312156107d857600080fd5b6107e182610647565b9392505050565b634e487b7160e01b600052603260045260246000fd5b6000825160005b8181101561081f5760208186018101518583015201610805565b50600092019182525091905056fea2646970667358221220292e8382da373af2587f22b66aa9a29b691b005a0734fde831f36e1ec8c4705c64736f6c63430008140033",
  "linkReferences": {},
  "deployedLinkReferences": {}
}