{"contracts/core/Executor.sol":{"ChainPilotExecutor":{"abi":[{"inputs":[{"internalType":"bytes","name":"reason","type":"bytes"}],"name":"ExecutionFailed","type":"error"},{"inputs":[{"internalType":"uint256","name":"deadline","type":"uint256"}],"name":"ExpiredApproval","type":"error"},{"inputs":[{"internalType":"uint256","name":"expected","type":"uint256"},{"internalType":"uint256","name":"actual","type":"uint256"}],"name":"InvalidValue","type":"error"},{"inputs":[{"internalType":"address","name":"user","type":"address"},{"internalType":"bytes32","name":"taskHash","type":"bytes32"}],"name":"UnauthorizedExecuter","type":"error"},{"anonymous":false,"inputs":[{"indexed":true,"internalType":"address","name":"user","type":"address"},{"indexed":true,"internalType":"bytes32","name":"taskHash","type":"bytes32"},{"indexed":false,"internalType":"uint256","name":"maxValue","type":"uint256"},{"indexed":false,"internalType":"uint256","name":"deadline","type":"uint256"}],"name":"TaskApproved","type":"event"},{"anonymous":false,"inputs":[{"indexed":true,"internalType":"address","name":"user","type":"address"},{"indexed":true,"internalType":"address","name":"target","type":"address"},{"indexed":true,"internalType":"bytes32","name":"taskHash","type":"bytes32"},{"indexed":false,"internalType":"uint256","name":"value","type":"uint256"},{"indexed":false,"internalType":"bool","name":"success","type":"bool"}],"name":"TaskExecuted","type":"event"},{"inputs":[{"internalType":"address","name":"target","type":"address"},{"internalType":"bytes","name":"payload","type":"bytes"},{"internalType":"uint256","name":"maxValue","type":"uint256"},{"internalType":"uint256","name":"deadline","type":"uint256"}],"name":"approveTask","outputs":[],"stateMutability":"nonpayable","type":"function"},{"inputs":[{"internalType":"address","name":"user","type":"address"},{"internalType":"address","name":"target","type":"address"},{"internalType":"bytes32","name":"payloadHash","type":"bytes32"},{"internalType":"uint256","name":"value","type":"uint256"}],"name":"executeTask","outputs":[{"internalType":"bool","name":"","type":"bool"}],"stateMutability":"payable","type":"function"},{"inputs":[{"internalType":"address","name":"target","type":"address"},{"internalType":"bytes","name":"payload","type":"bytes"},{"internalType":"uint256","name":"maxValue","type":"uint256"}],"name":"getTaskHash","outputs":[{"internalType":"bytes32","name":"","type":"bytes32"}],"stateMutability":"pure","type":"function"},{"inputs":[{"internalType":"address","name":"","type":"address"},{"internalType":"bytes32","name":"","type":"bytes32"}],"name":"userApprovals","outputs":[{"internalType":"uint256","name":"maxValue","type":"uint256"},{"internalType":"uint256","name":"deadline","type":"uint256"}],"stateMutability":"view","type":"function"}],"devdoc":{"author":"@0xJonaseb11","details":"Uses EIP-712 signatures for approvals and optimized for Base network","kind":"dev","methods":{},"title":"ChainPilotExecutor Contract","version":1},"evm":{"bytecode":{"linkReferences":{},"object":"608060405234801561001057600080fd5b50610651806100206000396000f3fe60806040526004361061003f5760003560e01c80636655370c14610044578063867d072b1461009a578063a31e8348146100bc578063c5a1f9d8146100df575b600080fd5b34801561005057600080fd5b5061008061005f366004610424565b60006020818152928152604080822090935290815220805460019091015482565b604080519283526020830191909152015b60405180910390f35b3480156100a657600080fd5b506100ba6100b5366004610497565b61010d565b005b6100cf6100ca3660046104fc565b610197565b6040519015158152602001610091565b3480156100eb57600080fd5b506100ff6100fa36600461053e565b6103ab565b604051908152602001610091565b600061011b868686866103ab565b604080518082018252858152602080820186815233600081815280845285812087825284528590209351845590516001909301929092558251878152908101869052929350839290917f48c893cb02081fc6b4de55c729b97289cd9247ec524f10b1be9f1cfe998b6a5e910160405180910390a3505050505050565b6001600160a01b03841660009081526020818152604080832085845282528083208151808301909252805482526001015491810182905290820361020557604051630f918b9960e41b81526001600160a01b0387166004820152602481018590526044015b60405180910390fd5b806020015142111561023257806020015160405163d9ea6c7560e01b81526004016101fc91815260200190565b805183111561026157805160405163de9b74a160e01b81526004810191909152602481018490526044016101fc565b82341461028a5760405163de9b74a160e01b8152600481018490523460248201526044016101fc565b600080866001600160a01b031685878a6040516020016102c692919091825260601b6bffffffffffffffffffffffff1916602082015260340190565b60408051601f19818403018152908290526102e0916105bc565b60006040518083038185875af1925050503d806000811461031d576040519150601f19603f3d011682016040523d82523d6000602084013e610322565b606091505b50915091508161034757806040516315fcd67560e01b81526004016101fc91906105d8565b85876001600160a01b0316896001600160a01b03167fdb99ff705e9a3913bdeb022b48c8d90544719458e56b839c685c4fb13fc3133188866040516103989291909182521515602082015260400190565b60405180910390a4509695505050505050565b60008484846040516103be92919061060b565b604080519182900382206001600160a01b03909316602083015281019190915260608101839052608001604051602081830303815290604052805190602001209050949350505050565b80356001600160a01b038116811461041f57600080fd5b919050565b6000806040838503121561043757600080fd5b61044083610408565b946020939093013593505050565b60008083601f84011261046057600080fd5b50813567ffffffffffffffff81111561047857600080fd5b60208301915083602082850101111561049057600080fd5b9250929050565b6000806000806000608086880312156104af57600080fd5b6104b886610408565b9450602086013567ffffffffffffffff8111156104d457600080fd5b6104e08882890161044e565b9699909850959660408101359660609091013595509350505050565b6000806000806080858703121561051257600080fd5b61051b85610408565b935061052960208601610408565b93969395505050506040820135916060013590565b6000806000806060858703121561055457600080fd5b61055d85610408565b9350602085013567ffffffffffffffff81111561057957600080fd5b6105858782880161044e565b9598909750949560400135949350505050565b60005b838110156105b357818101518382015260200161059b565b50506000910152565b600082516105ce818460208701610598565b9190910192915050565b60208152600082518060208401526105f7816040850160208701610598565b601f01601f19169190910160400192915050565b818382376000910190815291905056fea2646970667358221220fd76496a08a89e37b40b6dcd1cdfa884f0cdb19fe2c3b92bc98f9aeb4f7496cd64736f6c63430008140033","opcodes":"PUSH1 0x80 PUSH1 0x40 MSTORE CALLVALUE DUP1 ISZERO PUSH2 0x10 JUMPI PUSH1 0x0 DUP1 REVERT JUMPDEST POP PUSH2 0x651 DUP1 PUSH2 0x20 PUSH1 0x0 CODECOPY PUSH1 0x0 RETURN INVALID PUSH1 0x80 PUSH1 0x40 MSTORE PUSH1 0x4 CALLDATASIZE LT PUSH2 0x3F JUMPI PUSH1 0x0 CALLDATALOAD PUSH1 0xE0 SHR DUP1 PUSH4 0x6655370C EQ PUSH2 0x44 JUMPI DUP1 PUSH4 0x867D072B EQ PUSH2 0x9A JUMPI DUP1 PUSH4 0xA31E8348 EQ PUSH2 0xBC JUMPI DUP1 PUSH4 0xC5A1F9D8 EQ PUSH2 0xDF JUMPI JUMPDEST PUSH1 0x0 DUP1 REVERT JUMPDEST CALLVALUE DUP1 ISZERO PUSH2 0x50 JUMPI PUSH1 0x0 DUP1 REVERT JUMPDEST POP PUSH2 0x80 PUSH2 0x5F CALLDATASIZE PUSH1 0x4 PUSH2 0x424 JUMP JUMPDEST PUSH1 0x0 PUSH1 0x20 DUP2 DUP2 MSTORE SWAP3 DUP2 MSTORE PUSH1 0x40 DUP1 DUP3 KECCAK256 SWAP1 SWAP4 MSTORE SWAP1 DUP2 MSTORE KECCAK256 DUP1 SLOAD PUSH1 0x1 SWAP1 SWAP2 ADD SLOAD DUP3 JUMP JUMPDEST PUSH1 0x40 DUP1 MLOAD SWAP3 DUP4 MSTORE PUSH1 0x20 DUP4 ADD SWAP2 SWAP1 SWAP2 MSTORE ADD JUMPDEST PUSH1 0x40 MLOAD DUP1 SWAP2 SUB SWAP1 RETURN JUMPDEST CALLVALUE DUP1 ISZERO PUSH2 0xA6 JUMPI PUSH1 0x0 DUP1 REVERT JUMPDEST POP PUSH2 0xBA PUSH2 0xB5 CALLDATASIZE PUSH1 0x4 PUSH2 0x497 JUMP JUMPDEST PUSH2 0x10D JUMP JUMPDEST STOP JUMPDEST PUSH2 0xCF PUSH2 0xCA CALLDATASIZE PUSH1 0x4 PUSH2 0x4FC JUMP JUMPDEST PUSH2 0x197 JUMP JUMPDEST PUSH1 0x40 MLOAD SWAP1 ISZERO ISZERO DUP2 MSTORE PUSH1 0x20 ADD PUSH2 0x91 JUMP JUMPDEST CALLVALUE DUP1 ISZERO PUSH2 0xEB JUMPI PUSH1 0x0 DUP1 REVERT JUMPDEST POP PUSH2 0xFF PUSH2 0xFA CALLDATASIZE PUSH1 0x4 PUSH2 0x53E JUMP JUMPDEST PUSH2 0x3AB JUMP JUMPDEST PUSH1 0x40 MLOAD SWAP1 DUP2 MSTORE PUSH1 0x20 ADD PUSH2 0x91 JUMP JUMPDEST PUSH1 0x0 PUSH2 0x11B DUP7 DUP7 DUP7 DUP7 PUSH2 0x3AB JUMP JUMPDEST PUSH1 0x40 DUP1 MLOAD DUP1 DUP3 ADD DUP3 MSTORE DUP6 DUP2 MSTORE PUSH1 0x20 DUP1 DUP3 ADD DUP7 DUP2 MSTORE CALLER PUSH1 0x0 DUP2 DUP2 MSTORE DUP1 DUP5 MSTORE DUP6 DUP2 KECCAK256 DUP8 DUP3 MSTORE DUP5 MSTORE DUP6 SWAP1 KECCAK256 SWAP4 MLOAD DUP5 SSTORE SWAP1 MLOAD PUSH1 0x1 SWAP1 SWAP4 ADD SWAP3 SWAP1 SWAP3 SSTORE DUP3 MLOAD DUP8 DUP2 MSTORE SWAP1 DUP2 ADD DUP7 SWAP1 MSTORE SWAP3 SWAP4 POP DUP4 SWAP3 SWAP1 SWAP2 PUSH32 0x48C893CB02081FC6B4DE55C729B97289CD9247EC524F10B1BE9F1CFE998B6A5E SWAP2 ADD PUSH1 0x40 MLOAD DUP1 SWAP2 SUB SWAP1 LOG3 POP POP POP POP POP POP JUMP JUMPDEST PUSH1 0x1 PUSH1 0x1 PUSH1 0xA0 SHL SUB DUP5 AND PUSH1 0x0 SWAP1 DUP2 MSTORE PUSH1 0x20 DUP2 DUP2 MSTORE PUSH1 0x40 DUP1 DUP4 KECCAK256 DUP6 DUP5 MSTORE DUP3 MSTORE DUP1 DUP4 KECCAK256 DUP2 MLOAD DUP1 DUP4 ADD SWAP1 SWAP3 MSTORE DUP1 SLOAD DUP3 MSTORE PUSH1 0x1 ADD SLOAD SWAP2 DUP2 ADD DUP3 SWAP1 MSTORE SWAP1 DUP3 SUB PUSH2 0x205 JUMPI PUSH1 0x40 MLOAD PUSH4 0xF918B99 PUSH1 0xE4 SHL DUP2 MSTORE PUSH1 0x1 PUSH1 0x1 PUSH1 0xA0 SHL SUB DUP8 AND PUSH1 0x4 DUP3 ADD MSTORE PUSH1 0x24 DUP2 ADD DUP6 SWAP1 MSTORE PUSH1 0x44 ADD JUMPDEST PUSH1 0x40 MLOAD DUP1 SWAP2 SUB SWAP1 REVERT JUMPDEST DUP1 PUSH1 0x20 ADD MLOAD TIMESTAMP GT ISZERO PUSH2 0x232 JUMPI DUP1 PUSH1 0x20 ADD MLOAD PUSH1 0x40 MLOAD PUSH4 0xD9EA6C75 PUSH1 0xE0 SHL DUP2 MSTORE PUSH1 0x4 ADD PUSH2 0x1FC SWAP2 DUP2 MSTORE PUSH1 0x20 ADD SWAP1 JUMP JUMPDEST DUP1 MLOAD DUP4 GT ISZERO PUSH2 0x261 JUMPI DUP1 MLOAD PUSH1 0x40 MLOAD PUSH4 0xDE9B74A1 PUSH1 0xE0 SHL DUP2 MSTORE PUSH1 0x4 DUP2 ADD SWAP2 SWAP1 SWAP2 MSTORE PUSH1 0x24 DUP2 ADD DUP5 SWAP1 MSTORE PUSH1 0x44 ADD PUSH2 0x1FC JUMP JUMPDEST DUP3 CALLVALUE EQ PUSH2 0x28A JUMPI PUSH1 0x40 MLOAD PUSH4 0xDE9B74A1 PUSH1 0xE0 SHL DUP2 MSTORE PUSH1 0x4 DUP2 ADD DUP5 SWAP1 MSTORE CALLVALUE PUSH1 0x24 DUP3 ADD MSTORE PUSH1 0x44 ADD PUSH2 0x1FC JUMP JUMPDEST PUSH1 0x0 DUP1 DUP7 PUSH1 0x1 PUSH1 0x1 PUSH1 0xA0 SHL SUB AND DUP6 DUP8 DUP11 PUSH1 0x40 MLOAD PUSH1 0x20 ADD PUSH2 0x2C6 SWAP3 SWAP2 SWAP1 SWAP2 DUP3 MSTORE PUSH1 0x60 SHL PUSH12 0xFFFFFFFFFFFFFFFFFFFFFFFF NOT AND PUSH1 0x20 DUP3 ADD MSTORE PUSH1 0x34 ADD SWAP1 JUMP JUMPDEST PUSH1 0x40 DUP1 MLOAD PUSH1 0x1F NOT DUP2 DUP5 SUB ADD DUP2 MSTORE SWAP1 DUP3 SWAP1 MSTORE PUSH2 0x2E0 SWAP2 PUSH2 0x5BC JUMP JUMPDEST PUSH1 0x0 PUSH1 0x40 MLOAD DUP1 DUP4 SUB DUP2 DUP6 DUP8 GAS CALL SWAP3 POP POP POP RETURNDATASIZE DUP1 PUSH1 0x0 DUP2 EQ PUSH2 0x31D JUMPI PUSH1 0x40 MLOAD SWAP2 POP PUSH1 0x1F NOT PUSH1 0x3F RETURNDATASIZE ADD AND DUP3 ADD PUSH1 0x40 MSTORE RETURNDATASIZE DUP3 MSTORE RETURNDATASIZE PUSH1 0x0 PUSH1 0x20 DUP5 ADD RETURNDATACOPY PUSH2 0x322 JUMP JUMPDEST PUSH1 0x60 SWAP2 POP JUMPDEST POP SWAP2 POP SWAP2 POP DUP2 PUSH2 0x347 JUMPI DUP1 PUSH1 0x40 MLOAD PUSH4 0x15FCD675 PUSH1 0xE0 SHL DUP2 MSTORE PUSH1 0x4 ADD PUSH2 0x1FC SWAP2 SWAP1 PUSH2 0x5D8 JUMP JUMPDEST DUP6 DUP8 PUSH1 0x1 PUSH1 0x1 PUSH1 0xA0 SHL SUB AND DUP10 PUSH1 0x1 PUSH1 0x1 PUSH1 0xA0 SHL SUB AND PUSH32 0xDB99FF705E9A3913BDEB022B48C8D90544719458E56B839C685C4FB13FC31331 DUP9 DUP7 PUSH1 0x40 MLOAD PUSH2 0x398 SWAP3 SWAP2 SWAP1 SWAP2 DUP3 MSTORE ISZERO ISZERO PUSH1 0x20 DUP3 ADD MSTORE PUSH1 0x40 ADD SWAP1 JUMP JUMPDEST PUSH1 0x40 MLOAD DUP1 SWAP2 SUB SWAP1 LOG4 POP SWAP7 SWAP6 POP POP POP POP POP POP JUMP JUMPDEST PUSH1 0x0 DUP5 DUP5 DUP5 PUSH1 0x40 MLOAD PUSH2 0x3BE SWAP3 SWAP2 SWAP1 PUSH2 0x60B JUMP JUMPDEST PUSH1 0x40 DUP1 MLOAD SWAP2 DUP3 SWAP1 SUB DUP3 KECCAK256 PUSH1 0x1 PUSH1 0x1 PUSH1 0xA0 SHL SUB SWAP1 SWAP4 AND PUSH1 0x20 DUP4 ADD MSTORE DUP2 ADD SWAP2 SWAP1 SWAP2 MSTORE PUSH1 0x60 DUP2 ADD DUP4 SWAP1 MSTORE PUSH1 0x80 ADD PUSH1 0x40 MLOAD PUSH1 0x20 DUP2 DUP4 SUB SUB DUP2 MSTORE SWAP1 PUSH1 0x40 MSTORE DUP1 MLOAD SWAP1 PUSH1 0x20 ADD KECCAK256 SWAP1 POP SWAP5 SWAP4 POP POP POP POP JUMP JUMPDEST DUP1 CALLDATALOAD PUSH1 0x1 PUSH1 0x1 PUSH1 0xA0 SHL SUB DUP2 AND DUP2 EQ PUSH2 0x41F JUMPI PUSH1 0x0 DUP1 REVERT JUMPDEST SWAP2 SWAP1 POP JUMP JUMPDEST PUSH1 0x0 DUP1 PUSH1 0x40 DUP4 DUP6 SUB SLT ISZERO PUSH2 0x437 JUMPI PUSH1 0x0 DUP1 REVERT JUMPDEST PUSH2 0x440 DUP4 PUSH2 0x408 JUMP JUMPDEST SWAP5 PUSH1 0x20 SWAP4 SWAP1 SWAP4 ADD CALLDATALOAD SWAP4 POP POP POP JUMP JUMPDEST PUSH1 0x0 DUP1 DUP4 PUSH1 0x1F DUP5 ADD SLT PUSH2 0x460 JUMPI PUSH1 0x0 DUP1 REVERT JUMPDEST POP DUP2 CALLDATALOAD PUSH8 0xFFFFFFFFFFFFFFFF DUP2 GT ISZERO PUSH2 0x478 JUMPI PUSH1 0x0 DUP1 REVERT JUMPDEST PUSH1 0x20 DUP4 ADD SWAP2 POP DUP4 PUSH1 0x20 DUP3 DUP6 ADD ADD GT ISZERO PUSH2 0x490 JUMPI PUSH1 0x0 DUP1 REVERT JUMPDEST SWAP3 POP SWAP3 SWAP1 POP JUMP JUMPDEST PUSH1 0x0 DUP1 PUSH1 0x0 DUP1 PUSH1 0x0 PUSH1 0x80 DUP7 DUP9 SUB SLT ISZERO PUSH2 0x4AF JUMPI PUSH1 0x0 DUP1 REVERT JUMPDEST PUSH2 0x4B8 DUP7 PUSH2 0x408 JUMP JUMPDEST SWAP5 POP PUSH1 0x20 DUP7 ADD CALLDATALOAD PUSH8 0xFFFFFFFFFFFFFFFF DUP2 GT ISZERO PUSH2 0x4D4 JUMPI PUSH1 0x0 DUP1 REVERT JUMPDEST PUSH2 0x4E0 DUP9 DUP3 DUP10 ADD PUSH2 0x44E JUMP JUMPDEST SWAP7 SWAP10 SWAP1 SWAP9 POP SWAP6 SWAP7 PUSH1 0x40 DUP2 ADD CALLDATALOAD SWAP7 PUSH1 0x60 SWAP1 SWAP2 ADD CALLDATALOAD SWAP6 POP SWAP4 POP POP POP POP JUMP JUMPDEST PUSH1 0x0 DUP1 PUSH1 0x0 DUP1 PUSH1 0x80 DUP6 DUP8 SUB SLT ISZERO PUSH2 0x512 JUMPI PUSH1 0x0 DUP1 REVERT JUMPDEST PUSH2 0x51B DUP6 PUSH2 0x408 JUMP JUMPDEST SWAP4 POP PUSH2 0x529 PUSH1 0x20 DUP7 ADD PUSH2 0x408 JUMP JUMPDEST SWAP4 SWAP7 SWAP4 SWAP6 POP POP POP POP PUSH1 0x40 DUP3 ADD CALLDATALOAD SWAP2 PUSH1 0x60 ADD CALLDATALOAD SWAP1 JUMP JUMPDEST PUSH1 0x0 DUP1 PUSH1 0x0 DUP1 PUSH1 0x60 DUP6 DUP8 SUB SLT ISZERO PUSH2 0x554 JUMPI PUSH1 0x0 DUP1 REVERT JUMPDEST PUSH2 0x55D DUP6 PUSH2 0x408 JUMP JUMPDEST SWAP4 POP PUSH1 0x20 DUP6 ADD CALLDATALOAD PUSH8 0xFFFFFFFFFFFFFFFF DUP2 GT ISZERO PUSH2 0x579 JUMPI PUSH1 0x0 DUP1 REVERT JUMPDEST PUSH2 0x585 DUP8 DUP3 DUP9 ADD PUSH2 0x44E JUMP JUMPDEST SWAP6 SWAP9 SWAP1 SWAP8 POP SWAP5 SWAP6 PUSH1 0x40 ADD CALLDATALOAD SWAP5 SWAP4 POP POP POP POP JUMP JUMPDEST PUSH1 0x0 JUMPDEST DUP4 DUP2 LT ISZERO PUSH2 0x5B3 JUMPI DUP2 DUP2 ADD MLOAD DUP4 DUP3 ADD MSTORE PUSH1 0x20 ADD PUSH2 0x59B JUMP JUMPDEST POP POP PUSH1 0x0 SWAP2 ADD MSTORE JUMP JUMPDEST PUSH1 0x0 DUP3 MLOAD PUSH2 0x5CE DUP2 DUP5 PUSH1 0x20 DUP8 ADD PUSH2 0x598 JUMP JUMPDEST SWAP2 SWAP1 SWAP2 ADD SWAP3 SWAP2 POP POP JUMP JUMPDEST PUSH1 0x20 DUP2 MSTORE PUSH1 0x0 DUP3 MLOAD DUP1 PUSH1 0x20 DUP5 ADD MSTORE PUSH2 0x5F7 DUP2 PUSH1 0x40 DUP6 ADD PUSH1 0x20 DUP8 ADD PUSH2 0x598 JUMP JUMPDEST PUSH1 0x1F ADD PUSH1 0x1F NOT AND SWAP2 SWAP1 SWAP2 ADD PUSH1 0x40 ADD SWAP3 SWAP2 POP POP JUMP JUMPDEST DUP2 DUP4 DUP3 CALLDATACOPY PUSH1 0x0 SWAP2 ADD SWAP1 DUP2 MSTORE SWAP2 SWAP1 POP JUMP INVALID LOG2 PUSH5 0x6970667358 0x22 SLT KECCAK256 REVERT PUSH23 0x496A08A89E37B40B6DCD1CDFA884F0CDB19FE2C3B92BC9 DUP16 SWAP11 0xEB 0x4F PUSH21 0x96CD64736F6C634300081400330000000000000000 "},"gasEstimates":{"creation":{"codeDepositCost":"323400","executionCost":"362","totalCost":"323762"},"external":{"approveTask(address,bytes,uint256,uint256)":"infinite","executeTask(address,address,bytes32,uint256)":"infinite","getTaskHash(address,bytes,uint256)":"infinite","userApprovals(address,bytes32)":"4712"}},"methodIdentifiers":{"approveTask(address,bytes,uint256,uint256)":"867d072b","executeTask(address,address,bytes32,uint256)":"a31e8348","getTaskHash(address,bytes,uint256)":"c5a1f9d8","userApprovals(address,bytes32)":"6655370c"}},"storageLayout":{"storage":[{"astId":339,"contract":"contracts/core/Executor.sol:ChainPilotExecutor","label":"userApprovals","offset":0,"slot":"0","type":"t_mapping(t_address,t_mapping(t_bytes32,t_struct(Approval)332_storage))"}],"types":{"t_address":{"encoding":"inplace","label":"address","numberOfBytes":"20"},"t_bytes32":{"encoding":"inplace","label":"bytes32","numberOfBytes":"32"},"t_mapping(t_address,t_mapping(t_bytes32,t_struct(Approval)332_storage))":{"encoding":"mapping","key":"t_address","label":"mapping(address => mapping(bytes32 => struct ChainPilotExecutor.Approval))","numberOfBytes":"32","value":"t_mapping(t_bytes32,t_struct(Approval)332_storage)"},"t_mapping(t_bytes32,t_struct(Approval)332_storage)":{"encoding":"mapping","key":"t_bytes32","label":"mapping(bytes32 => struct ChainPilotExecutor.Approval)","numberOfBytes":"32","value":"t_struct(Approval)332_storage"},"t_struct(Approval)332_storage":{"encoding":"inplace","label":"struct ChainPilotExecutor.Approval","members":[{"astId":329,"contract":"contracts/core/Executor.sol:ChainPilotExecutor","label":"maxValue","offset":0,"slot":"0","type":"t_uint256"},{"astId":331,"contract":"contracts/core/Executor.sol:ChainPilotExecutor","label":"deadline","offset":0,"slot":"1","type":"t_uint256"}],"numberOfBytes":"64"},"t_uint256":{"encoding":"inplace","label":"uint256","numberOfBytes":"32"}}},"userdoc":{"kind":"user","methods":{"approveTask(address,bytes,uint256,uint256)":{"notice":"Pre-approve a task with deadline"},"executeTask(address,address,bytes32,uint256)":{"notice":"Execute a pre-approved task from Scheduler"},"getTaskHash(address,bytes,uint256)":{"notice":"Compute task hash for approval"}},"notice":"Securely executes pre-approved tasks from Scheduler","version":1}}}}