{
  "_format": "hh-sol-artifact-1",
  "contractName": "TemplateManager",
  "sourceName": "contracts/core/TemplateManager.sol",
  "abi": [
    {
      "inputs": [],
      "name": "ExecutionFailed",
      "type": "error"
    },
    {
      "inputs": [],
      "name": "InvalidTemplate",
      "type": "error"
    },
    {
      "inputs": [],
      "name": "TemplateLocked",
      "type": "error"
    },
    {
      "inputs": [],
      "name": "Unauthorized",
      "type": "error"
    },
    {
      "anonymous": false,
      "inputs": [
        {
          "indexed": true,
          "internalType": "uint256",
          "name": "templateId",
          "type": "uint256"
        },
        {
          "indexed": true,
          "internalType": "address",
          "name": "owner",
          "type": "address"
        }
      ],
      "name": "TemplateCreated",
      "type": "event"
    },
    {
      "anonymous": false,
      "inputs": [
        {
          "indexed": true,
          "internalType": "uint256",
          "name": "templateId",
          "type": "uint256"
        },
        {
          "indexed": true,
          "internalType": "address",
          "name": "user",
          "type": "address"
        }
      ],
      "name": "TemplateUsed",
      "type": "event"
    },
    {
      "inputs": [
        {
          "internalType": "address",
          "name": "target",
          "type": "address"
        },
        {
          "internalType": "bytes",
          "name": "payload",
          "type": "bytes"
        },
        {
          "internalType": "bool",
          "name": "isPublic",
          "type": "bool"
        }
      ],
      "name": "createTemplate",
      "outputs": [
        {
          "internalType": "uint256",
          "name": "templateId",
          "type": "uint256"
        }
      ],
      "stateMutability": "nonpayable",
      "type": "function"
    },
    {
      "inputs": [
        {
          "internalType": "uint256",
          "name": "templateId",
          "type": "uint256"
        }
      ],
      "name": "lockTemplate",
      "outputs": [],
      "stateMutability": "nonpayable",
      "type": "function"
    },
    {
      "inputs": [],
      "name": "templateIdCounter",
      "outputs": [
        {
          "internalType": "uint256",
          "name": "",
          "type": "uint256"
        }
      ],
      "stateMutability": "view",
      "type": "function"
    },
    {
      "inputs": [
        {
          "internalType": "uint256",
          "name": "",
          "type": "uint256"
        }
      ],
      "name": "templates",
      "outputs": [
        {
          "internalType": "address",
          "name": "owner",
          "type": "address"
        },
        {
          "internalType": "address",
          "name": "target",
          "type": "address"
        },
        {
          "internalType": "bytes",
          "name": "payload",
          "type": "bytes"
        },
        {
          "internalType": "bool",
          "name": "isPublic",
          "type": "bool"
        },
        {
          "internalType": "bool",
          "name": "isLocked",
          "type": "bool"
        }
      ],
      "stateMutability": "view",
      "type": "function"
    },
    {
      "inputs": [
        {
          "internalType": "uint256",
          "name": "templateId",
          "type": "uint256"
        }
      ],
      "name": "useTemplate",
      "outputs": [],
      "stateMutability": "nonpayable",
      "type": "function"
    }
  ],
  "bytecode": "0x608060405234801561001057600080fd5b50610857806100206000396000f3fe608060405234801561001057600080fd5b50600436106100575760003560e01c806312709bdc1461005c578063335c86c814610082578063702ead1914610097578063947cebe7146100a0578063bc525652146100b3575b600080fd5b61006f61006a36600461053d565b6100d7565b6040519081526020015b60405180910390f35b6100956100903660046105e6565b61024b565b005b61006f60015481565b6100956100ae3660046105e6565b610429565b6100c66100c13660046105e6565b610473565b604051610079959493929190610623565b60006001600160a01b03851615806100ed575082155b1561010b5760405163ec55b8cd60e01b815260040160405180910390fd5b6001805490600061011b8361067f565b9190505590506040518060a00160405280336001600160a01b03168152602001866001600160a01b0316815260200185858080601f0160208091040260200160405190810160405280939291908181526020018383808284376000920182905250938552505050841515602080840191909152604092830182905284825281815290829020835181546001600160a01b03199081166001600160a01b03928316178355928501516001830180549094169116179091559082015160028201906101e49082610745565b5060608201516003909101805460809093015115156101000261ff00199215159290921661ffff1990931692909217179055604051339082907f03fde0809c914c1fd14cb6ad3f5c01886ebc53bf3954b4004eaa8af8f6452a4190600090a3949350505050565b600081815260208181526040808320815160a08101835281546001600160a01b039081168252600183015416938101939093526002810180549192840191610292906106bc565b80601f01602080910402602001604051908101604052809291908181526020018280546102be906106bc565b801561030b5780601f106102e05761010080835404028352916020019161030b565b820191906000526020600020905b8154815290600101906020018083116102ee57829003601f168201915b50505091835250506003919091015460ff808216151560208401526101009091041615156040909101526060810151909150158015610354575080516001600160a01b03163314155b15610371576040516282b42960e81b815260040160405180910390fd5b600081602001516001600160a01b031682604001516040516103939190610805565b6000604051808303816000865af19150503d80600081146103d0576040519150601f19603f3d011682016040523d82523d6000602084013e6103d5565b606091505b50509050806103f757604051632b3f6d1160e21b815260040160405180910390fd5b604051339084907f86897a63ea5d0bfc382fe9c6a57bcd4b5b3e336a12b4a97ac9fc1cccd5eeeed590600090a3505050565b600081815260208190526040902080546001600160a01b03163314610460576040516282b42960e81b815260040160405180910390fd5b600301805461ff00191661010017905550565b6000602081905290815260409020805460018201546002830180546001600160a01b039384169492909316926104a8906106bc565b80601f01602080910402602001604051908101604052809291908181526020018280546104d4906106bc565b80156105215780601f106104f657610100808354040283529160200191610521565b820191906000526020600020905b81548152906001019060200180831161050457829003601f168201915b5050506003909301549192505060ff8082169161010090041685565b6000806000806060858703121561055357600080fd5b84356001600160a01b038116811461056a57600080fd5b9350602085013567ffffffffffffffff8082111561058757600080fd5b818701915087601f83011261059b57600080fd5b8135818111156105aa57600080fd5b8860208285010111156105bc57600080fd5b602083019550809450505050604085013580151581146105db57600080fd5b939692955090935050565b6000602082840312156105f857600080fd5b5035919050565b60005b8381101561061a578181015183820152602001610602565b50506000910152565b600060018060a01b03808816835280871660208401525060a0604083015284518060a084015261065a8160c08501602089016105ff565b931515606083015250901515608082015260c0601f909201601f191601019392505050565b60006001820161069f57634e487b7160e01b600052601160045260246000fd5b5060010190565b634e487b7160e01b600052604160045260246000fd5b600181811c908216806106d057607f821691505b6020821081036106f057634e487b7160e01b600052602260045260246000fd5b50919050565b601f82111561074057600081815260208120601f850160051c8101602086101561071d5750805b601f850160051c820191505b8181101561073c57828155600101610729565b5050505b505050565b815167ffffffffffffffff81111561075f5761075f6106a6565b6107738161076d84546106bc565b846106f6565b602080601f8311600181146107a857600084156107905750858301515b600019600386901b1c1916600185901b17855561073c565b600085815260208120601f198616915b828110156107d7578886015182559484019460019091019084016107b8565b50858210156107f55787850151600019600388901b60f8161c191681555b5050505050600190811b01905550565b600082516108178184602087016105ff565b919091019291505056fea2646970667358221220f7b741174f0d1a9a7c9ccc334e3138b1b190a6f45541deebe2fafea0508a5f3e64736f6c63430008140033",
  "linkReferences": {},
  "deployedLinkReferences": {}
}